:100000000C9462000C943D070C9416070C948A0023
:100010000C948A000C948A000C948A000C948A0038
:100020000C948A000C948A000C948A000C948A0028
:100030000C948A000C948A000C948A000C948A0018
:100040000C94CC060C948A000C949A060C947406BA
:100050000C948A000C948A000C948A000C948A00F8
:100060000C948A000C948A000000000024002700F1
:100070002A0000000000250028002B0000000000DE
:1000800023002600290004040404040404040202DA
:100090000202020203030303030301020408102007
:1000A0004080010204081020010204081020000012
:1000B0000008000201000003040700000000000027
:1000C0000000640711241FBECFEFD8E0DEBFCDBF14
:1000D00022E0AAEBB1E001C01D92A338B207E1F71C
:1000E00011E0A0E0B1E0EAE3FAE102C005900D9270
:1000F000AA3BB107D9F710E0C2E6D0E004C02197CF
:10010000FE010E94230BC136D107C9F70E94AE073A
:100110000C941B0D0C9400008091C6019091C701B6
:100120000A969093C7018093C6012091C601309131
:10013000C7018091C4019091C5018217930724F4EF
:100140009093C7018093C601089581E08093C30115
:100150008091C6019091C7010A979093C70180933F
:10016000C6018091C6019091C70197FF04C010920B
:10017000C7011092C60108950895AF92BF92CF9221
:10018000DF92EF92FF920F931F93CF93DF936C0157
:100190007B018B01040F151FEB015E01AE18BF0838
:1001A000C017D10759F06991D601ED91FC910190EA
:1001B000F081E02DC6010995892B79F7C501DF9102
:1001C000CF911F910F91FF90EF90DF90CF90BF9054
:1001D000AF900895FC01538D448D252F30E0842F7E
:1001E00090E0821B930B541710F0CF96089501975F
:1001F0000895FC01918D828D981761F0A28DAE0F4C
:10020000BF2FB11D5D968C91928D9F5F9F73928FD2
:1002100090E008958FEF9FEF0895FC01918D828DFE
:10022000981731F0828DE80FF11D858D90E00895CB
:100230008FEF9FEF0895FC01918D228D892F90E023
:10024000805C9F4F821B91098F73992708958AECD8
:1002500091E00E941B0121E0892B09F420E0822F0C
:10026000089580E090E0892B29F00E9427018111F8
:100270000C9400000895FC01A48DA80FB92FB11DA6
:10028000A35ABF4F2C91848D90E001968F739927CC
:10029000848FA689B7892C93A089B1898C918370AA
:1002A00080648C93938D848D981306C00288F389A3
:1002B000E02D80818F7D80830895EF92FF920F93D0
:1002C0001F93CF93DF93EC0181E0888F9B8D8C8D02
:1002D00098131AC0E889F989808185FF15C09FB7F6
:1002E000F894EE89FF896083E889F98980818370B9
:1002F000806480839FBF81E090E0DF91CF911F9168
:100300000F91FF90EF900895F62E0B8D10E00F5F88
:100310001F4F0F731127E02E8C8D8E110CC00FB65E
:1003200007FCFACFE889F989808185FFF5CFCE01F6
:100330000E943B01F1CFEB8DEC0FFD2FF11DE35A35
:10034000FF4FF0829FB7F8940B8FEA89FB89808179
:100350008062CFCFCF93DF93EC01888D8823B9F0F3
:10036000AA89BB89E889F9898C9185FD03C08081C0
:1003700086FD0DC00FB607FCF7CF8C9185FFF2CF3D
:10038000808185FFEDCFCE010E943B01E9CFDF9157
:10039000CF910895833081F028F4813099F0823034
:1003A000A9F008958730A9F08830C9F08430B1F4FD
:1003B000809180008F7D03C0809180008F77809333
:1003C0008000089584B58F7784BD089584B58F7DAE
:1003D000FBCF8091B0008F778093B000089580911B
:1003E000B0008F7DF9CFCF93DF93282F30E0F90154
:1003F000E255FF4F8491F901E656FF4FD491F90180
:10040000EA57FF4FC491CC23A1F081110E94CA0189
:10041000EC2FF0E0EE0FFF1FE458FF4FA591B491D1
:10042000EC91ED2381E090E009F480E0DF91CF9141
:10043000089580E090E0FACF1F93CF93DF93282FA9
:1004400030E0F901E255FF4F8491F901E656FF4F84
:10045000D491F901EA57FF4FC491CC23A9F0162F8C
:1004600081110E94CA01EC2FF0E0EE0FFF1FEE5841
:10047000FF4FA591B4918FB7F894EC91111108C07A
:10048000D095DE23DC938FBFDF91CF911F9108952C
:10049000DE2BF8CFCF93DF9390E0FC01E656FF4FC1
:1004A00024918A579F4FFC0184918823C9F090E0E2
:1004B000880F991FFC01E859FF4FA591B491FC01E9
:1004C000EE58FF4FC591D49161110DC09FB7F894BC
:1004D0008C91209582238C938881282328839FBF29
:1004E000DF91CF910895623051F49FB7F8943C9119
:1004F000822F809583238C93E8812E2BEFCF8FB7AB
:10050000F894EC912E2B2C938FBFEACFCF93DF93EF
:10051000EC0161E086E00E944A02209731F460E03D
:1005200086E0DF91CF910C941C02CF3FD10511F4EE
:1005300061E0F6CFE4EBF0E0E491E33029F140F440
:10054000E130B1F0E230D9F0C038D1058CF7E7CF17
:10055000E73021F1E83051F1E430B1F780918000CB
:10056000806280938000D0938B00C0938A0004C087
:1005700084B5806884BDC7BDDF91CF91089584B5EF
:10058000806284BDC8BDF8CF809180008068809370
:100590008000D0938900C0938800EECF8091B00096
:1005A00080688093B000C093B300E6CF8091B00024
:1005B00080628093B000C093B400DECF3FB7F89460
:1005C0008091BB019091BC01A091BD01B091BE0191
:1005D00026B5A89B05C02F3F19F00196A11DB11D9E
:1005E0003FBFBA2FA92F982F8827BC01CD01620FDA
:1005F000711D811D911D42E0660F771F881F991F95
:100600004A95D1F708958F929F92AF92BF92CF9261
:10061000DF92EF92FF924B015C010E94DE026B01C0
:100620007C010E94DE026C197D098E099F09683EDB
:10063000734081059105A8F321E0821A9108A10871
:10064000B10888EEC80E83E0D81EE11CF11C8114AD
:100650009104A104B10429F7FF90EF90DF90CF90AF
:10066000BF90AF909F908F900895089590E080E0A4
:10067000089561E087E00E941C0264EF71E080E071
:1006800090E00E94030360E087E00C941C02CF938B
:10069000DF93EC0188819981009711F00E94C50BCE
:1006A000198218821D821C821B821A82DF91CF91CF
:1006B0000895FC0180819181009711F00C94C50B85
:1006C0000895CF93DF93EC0160E08E810E941C02BD
:1006D00061E08E810E941C0260E08E810E941C02FB
:1006E0008BE891E00197F1F7DF91CF910895CF92D8
:1006F000DF92EF92FF920F931F93CF93DF936C01E2
:100700007C0187E0E80EF11CD0E0C0E0062F10E08D
:10071000B8010C2E02C0759567950A94E2F76170D6
:10072000F70181917F010E941C022196C430D105FE
:1007300079F7C601DF91CF911F910F91FF90EF9054
:10074000DF90CF900C946103CF92DF92EF92FF92F3
:100750000F931F93CF93DF93EC01F62E642F8C81C0
:100760000E941C028D818F3F19F060E00E941C02E4
:100770000F2D10E08F8584FF25C06E0187E0C80E25
:10078000D11CF12CE12CB8010E2C02C07595679597
:100790000A94E2F76170F60181916F010E941C02D8
:1007A000FFEFEF1AFF0A88E0E816F10461F7CE01C7
:1007B000DF91CF911F910F91FF90EF90DF90CF903D
:1007C0000C946103B80184E0759567958A95E1F70B
:1007D000CE010E9477036F2DCE01DF91CF911F9143
:1007E0000F91FF90EF90DF90CF900C94770340E053
:1007F000682F87E692E00C94A403CF93DF938230B6
:1008000029F49091760298609093760280937A0210
:1008100010927B0280E480937C0280E180937D02D1
:1008200080E580937E0261E080916B020E944A0223
:1008300080916C028F3F19F061E00E944A0261E0F2
:1008400080916D020E944A02C7E6D2E09E012756BF
:1008500032408091760284FD0BC084E090E02196C6
:100860002817390744F461E08E810E944A02EECFD6
:1008700088E090E0F4CF8BE39DE00197F1F760E032
:1008800080916B020E941C0260E080916D020E94C8
:100890001C0280916C028F3F19F060E00E941C02E4
:1008A0008091760284FD39C063E087E692E00E9481
:1008B0007703CBE4D6E4CE010197F1F763E087E656
:1008C00092E00E9477032197F1F763E087E692E0D8
:1008D0000E94770383E592E00197F1F762E087E6F3
:1008E00092E00E9477038091760280620E94F70373
:1008F00084E0809377028CE00E94F70381E00E94FD
:10090000F7038BE39FE10197F1F782E08093780290
:1009100086E0DF91CF910C94F70380620E94F70389
:100920008BE496E40197F1F78091760280620E9451
:10093000F70383E592E00197F1F7809176028062F8
:100940000E94F703D0CF41E00E94A40381E090E031
:1009500008950F931F93CF93DF93EC0188819981C2
:10096000009759F02A813B812617370730F081E044
:10097000DF91CF911F910F9108958B016F5F7F4F92
:100980000E944E0C009759F0998388831B830A8339
:100990002C813D81232B59F7FC011082E8CF80E0A8
:1009A000E7CFEF92FF920F931F93CF93DF93EC016A
:1009B000FB01E080F180E114F10411F10481158163
:1009C00001151105A9F08C819D81080F191FB8012F
:1009D000CE010E94A904882399F0288139818C8155
:1009E0009D81B701820F931F0E94140D1D830C83FC
:1009F000CE01DF91CF911F910F91FF90EF9008955D
:100A0000CE010E944703F4CFEF92FF920F931F9302
:100A1000CF93DF93EC017B018A01BA010E94A90404
:100A200081110BC0CE010E944703CE01DF91CF910F
:100A30001F910F91FF90EF9008951D830C83B701D4
:100A4000888199810E94140DF0CFEF92FF920F934D
:100A50001F93CF93DF93CDB7DEB762970FB6F894AD
:100A6000DEBF0FBECDBF8C01CB01F8011182108219
:100A700013821282158214824AE09E012F5F3F4F3B
:100A80007901B9010E94B70AF70101900020E9F746
:100A90003197AF014E195F09B701C8010E940405E3
:100AA00062960FB6F894DEBF0FBECDBFDF91CF9137
:100AB0001F910F91FF90EF900895CF93DF93EC017A
:100AC000FB018617970749F06081718161157105F7
:100AD00041F0448155810E940405CE01DF91CF9100
:100AE00008950E944703F9CFFC01118210821382FE
:100AF000128215821482FB0101900020E9F73197E0
:100B0000AF01461B570B0C940405DF92EF92FF9246
:100B10000F931F93CF93DF9300D000D000D0CDB7B9
:100B2000DEB78C0164E771E0CE0101960E94740586
:100B3000D8011496ED90FC90E114F10441F1B0E17C
:100B4000EB16F10418F080E1E82EF12CD801ED91BC
:100B5000FC911197EE0DFF1DD08010826D917C915C
:100B60006115710509F441C0FB0101900020E9F70E
:100B70003197AF01461B570BCE0101960E94040529
:100B8000F80180819181E80EF91ED701DC92F8010D
:100B900080819181009781F169817A816115710568
:100BA00049F1428153812D813E814217530710F153
:100BB0000E94140D8D819E81D80115969C938E9371
:100BC00014971E821D82CE0101960E94590326961B
:100BD0000FB6F894DEBF0FBECDBFDF91CF911F914E
:100BE0000F91FF90EF90DF900895CE0101960E9443
:100BF0004703C6CF0E94C50B89819A81F801918372
:100C000080838B819C81938382838D819E81958358
:100C100084831A8219821C821B82D3CFCF92DF92E7
:100C2000EF92FF920F931F93CF93DF937C01EB0121
:100C3000FC0184819581419718F0C7010E948505C8
:100C40008C819D81419718F0CE010E94850500E1BD
:100C500010E0F701848195816801C81AD90AD694F9
:100C6000C7948C819D81081B190B1695079581E00F
:100C70000E94F7038BE39FE10197F1F7E1E0809198
:100C80007A028111E0E0E195F0E0E959FD4F8489B5
:100C90008C0D80680E94F703F701448155816081C3
:100CA000718187E692E00E94BD00E0917A02E23015
:100CB000C8F4E150F0E0E959FD4F8489800F806865
:100CC0000E94F7034C815D816881798187E692E01B
:100CD000DF91CF911F910F91FF90EF90DF90CF9018
:100CE0000C94BD00E1E0E6CF1F920F920FB60F9279
:100CF00011242F933F934F935F936F937F938F9321
:100D00009F93AF93BF93EF93FF938AEC91E00E9480
:100D10003B01FF91EF91BF91AF919F918F917F9197
:100D20006F915F914F913F912F910F900FBE0F9058
:100D30001F9018951F920F920FB60F9211242F93A8
:100D40008F939F93EF93FF93E091DA01F091DB0192
:100D50008081E091E001F091E10182FD1BC0908172
:100D60008091E3018F5F8F732091E401821741F03E
:100D7000E091E301F0E0E653FE4F958F8093E301AD
:100D8000FF91EF919F918F912F910F900FBE0F9038
:100D90001F9018958081F4CF1F920F920FB60F927B
:100DA00011242F933F938F939F93AF93BF93809181
:100DB000BF019091C001A091C101B091C2013091D9
:100DC000BA0123E0230F2D3758F50196A11DB11D5F
:100DD0002093BA018093BF019093C001A093C101F9
:100DE000B093C2018091BB019091BC01A091BD0163
:100DF000B091BE010196A11DB11D8093BB019093DE
:100E0000BC01A093BD01B093BE01BF91AF919F9172
:100E10008F913F912F910F900FBE0F901F901895BB
:100E200026E8230F0296A11DB11DD2CF1F920F926B
:100E30000FB60F9211242F933F934F935F936F93AD
:100E40007F938F939F93AF93BF93EF93FF93E09123
:100E50000201F09103010995FF91EF91BF91AF91CC
:100E60009F918F917F916F915F914F913F912F91C2
:100E70000F900FBE0F901F9018951F920F920FB6F4
:100E80000F9211242F933F934F935F936F937F9310
:100E90008F939F93AF93BF93EF93FF93E0910001E4
:100EA000F09101010995FF91EF91BF91AF919F9151
:100EB0008F917F916F915F914F913F912F910F9003
:100EC0000FBE0F901F901895EAECF1E0138212828A
:100ED00088EE93E0A0E0B0E084839583A683B78397
:100EE0008EE091E09183808385EC90E09587848704
:100EF00084EC90E09787868780EC90E0918B808BE4
:100F000081EC90E0938B828B82EC90E0958B848BCC
:100F100086EC90E0978B868B118E128E138E148E3A
:100F2000E7E6F2E01382128280E291E0918380830F
:100F300085E084838FEF858388E086838AE08783DA
:100F40008BE080878CE081878DE082871386148612
:100F500015861686178681E00C94FD03CF93DF93E8
:100F6000CDB7DEB7A4970FB6F894DEBF0FBECDBFE6
:100F7000789484B5826084BD84B5816084BD85B574
:100F8000826085BD85B5816085BD80916E00816080
:100F900080936E0010928100809181008260809326
:100FA0008100809181008160809381008091800028
:100FB0008160809380008091B10084608093B10053
:100FC0008091B00081608093B00080917A0084604D
:100FD00080937A0080917A00826080937A00809179
:100FE0007A00816080937A0080917A008068809393
:100FF0007A001092C100E091DA01F091DB0182E009
:101000008083E091D601F091D7011082E091D80160
:10101000F091D9018FEC80831092E201E091DE0122
:10102000F091DF0186E08083E091DC01F091DD0149
:10103000808180618083E091DC01F091DD0180811D
:1010400088608083E091DC01F091DD01808180681F
:101050008083E091DC01F091DD0180818F7D8083D0
:1010600082E00E94FD0362E08FE00E944A0262E09B
:1010700080E10E944A0262E081E10E944A0260E04F
:1010800082E00E944A0260E083E00E944A0261E03E
:1010900084E00E944A0261E086E00E944A0261E028
:1010A00087E00E944A0260E082E10E944A028CE8E6
:1010B00090E09093010180930001809169008C7F02
:1010C000826080936900E89A85EA90E0909303013A
:1010D0008093020180916900837F8860809369001A
:1010E000E99A68E271E0CE0101960E94740564E31A
:1010F00071E0CE0107960E947405BE016F5F7F4FBD
:10110000CE0107960E940E06CE0107960E94590353
:10111000CE0101960E94590364EF71E080E090E0F7
:101120000E9403030EE110E0F0E5EF2EF12CA2E3A4
:10113000CA2ED12C64E4762E73E0872E912CE0E049
:10114000AE2EE0E0BE2E70927C0080917A0080642A
:1011500080937A0080917A0086FDFCCF9091780090
:1011600080917900892798278927873691050CF483
:10117000CFC061E671E0CE0101960E9474056BE379
:1011800071E0CE0107960E947405BE016F5F7F4F2C
:10119000CE0107960E940E06CE0107960E945903C3
:1011A000CE0101960E9459030E94390360ED77E059
:1011B00080E090E00E9403038091C8019091C901F2
:1011C000009709F0B5C04DE250E064E471E08AECAC
:1011D00091E00E94BD0042E050E062E771E08AECDD
:1011E00091E00E94BD009092C9018092C80164EF15
:1011F00071E080E090E00E9403038091C60190912D
:10120000C701181619060CF09EC10E94390380917F
:10121000C6019091C701892B09F495C18091C6013F
:101220009091C7019C01220F331F820F931F0E94D0
:1012300086026091C6017091C701CE0107960E9497
:10124000250565E771E0CE010D960E947405BE018B
:10125000695F7F4FCE010D960E94D1041A821982D8
:101260001C821B821E821D82BC01CE0101960E943F
:101270005D056091C4017091C501CE0149960E943F
:1012800025056DE771E0CE014F960E947405BE0101
:10129000675E7F4FCE014F960E94D1041C8A1B8A45
:1012A0001E8A1D8A188E1F8ABC01CE0143960E9499
:1012B0005D05BE016F5F7F4FCE0143960E940E0613
:1012C000CE0143960E945903CE014F960E945903C6
:1012D000CE0149960E945903CE0101960E945903FE
:1012E000CE010D960E945903CE0107960E94590324
:1012F0006CE271E080E090E00E9403038091C601FF
:101300009091C7010A979093C7018093C6017FCF40
:101310008FE00E94F301892B89F080E10E94F301A4
:10132000892B09F01CC1D092C501C092C4010AC02A
:1013300001979093C9018093C80159CF1093C501BB
:101340000093C4012091C6013091C7018091C4016E
:101350009091C501821793070CF054C065E871E0C5
:10136000CE0101960E94740564E971E0CE010796F2
:101370000E947405BE016F5F7F4FCE0107960E94E9
:101380000E06CE0107960E945903CE0101960E94D7
:1013900059030E94390360ED77E080E090E00E94FD
:1013A00003036FE971E0CE0101960E9474056BEAB8
:1013B00071E0CE0107960E947405BE016F5F7F4FFA
:1013C000CE0107960E940E06CE0107960E94590391
:1013D000CE0101960E94590361E084E00E941C0244
:1013E00068EE73E080E090E00E94030360E084E038
:1013F0000E941C028091C4019091C5019093C70185
:101400008093C6016091C6017091C701CE01079615
:101410000E94250565E771E0CE010D960E947405D6
:10142000BE01695F7F4FCE010D960E94D1041A82E2
:1014300019821C821B821E821D82BC01CE01019674
:101440000E945D056091C4017091C501CE0149966D
:101450000E9425056DE771E0CE014F960E9474054C
:10146000BE01675E7F4FCE014F960E94D1041C8A59
:101470001B8A1E8A1D8A188E1F8ABC01CE014396C4
:101480000E945D05BE016F5F7F4FCE0143960E94B3
:101490000E06CE0143960E945903CE014F960E943C
:1014A0005903CE0149960E945903CE0101960E942C
:1014B0005903CE010D960E945903CE0107960E9452
:1014C00059038091C6019091C7019C01220F331FDF
:1014D000820F931F0E9486028FB7F8944091BF013C
:1014E0005091C0016091C1017091C2018FBF2FB7AF
:1014F000F8948091BF019091C001A091C101B09179
:10150000C2012FBF841B950BA60BB70B843F9140E4
:10151000A105B105A0F48091C301882341F361E0E6
:1015200084E00E941C0268EC70E080E090E00E9481
:10153000030360E084E00E941C021092C301109239
:10154000C9011092C801A114B10409F4FCCD0E9494
:101550002701882309F4EECD0E940000EBCD81E144
:101560000E94F301F092C501E092C401EBCEBB27CB
:101570004A3031F4992322F4BDE2909581959F4F32
:101580000C94C30ABB27FB015527AA27880F991F74
:10159000AA1FA41710F0A41B83955051B9F7A05DA2
:1015A000AA3308F0A95DA193009779F7B111B1931F
:1015B0001192CB010C94DC0ADC01FC01672F7191C4
:1015C0007723E1F7329704C07C916D937083629129
:1015D000AE17BF07C8F308952F923F924F925F92C4
:1015E0006F927F928F929F92AF92BF92CF92DF9233
:1015F000EF92FF920F931F93CF93DF93CDB7DEB798
:10160000CA1BDB0B0FB6F894DEBF0FBECDBF09942B
:101610002A88398848885F846E847D848C849B8482
:10162000AA84B984C884DF80EE80FD800C811B8190
:10163000AA81B981CE0FD11D0FB6F894DEBF0FBEBF
:10164000CDBFED010895EE0FFF1F0590F491E02D41
:1016500009940F931F93CF93DF938230910510F479
:1016600082E090E0E0918102F091820230E020E09F
:10167000B0E0A0E0309799F42115310509F44AC093
:10168000281B390B24303105D8F58A819B816115DF
:10169000710589F1FB0193838283FE0111C04081B2
:1016A00051810281138148175907E0F04817590703
:1016B00099F4109761F012960C93129713961C935D
:1016C0003296CF01DF91CF911F910F910895009332
:1016D000810210938202F4CF2115310551F0421797
:1016E000530738F0A901DB019A01BD01DF01F801C0
:1016F000C1CFEF01F9CF9093820280938102CDCFC9
:10170000FE01E20FF31F8193919322503109398337
:101710002883D7CF20917F0230918002232B41F480
:1017200020910601309107013093800220937F02BF
:1017300020910401309105012115310541F42DB7A7
:101740003EB74091080150910901241B350BE091EF
:101750007F02F0918002E217F307A0F42E1B3F0BEB
:101760002817390778F0AC014E5F5F4F2417350713
:1017700048F04E0F5F1F5093800240937F02819389
:1017800091939FCFF0E0E0E09CCFCF93DF93009761
:10179000E9F0FC01329713821282A0918102B0918C
:1017A0008202ED0130E020E01097A1F42081318128
:1017B000820F931F20917F023091800228173907F2
:1017C00009F061C0F0938002E0937F02DF91CF9136
:1017D0000895EA01CE17DF07E8F54A815B819E0193
:1017E00041155105B1F7E901FB83EA83499159910C
:1017F000C40FD51FEC17FD0761F48081918102961B
:10180000840F951FE90199838883828193819B834B
:101810008A83F0E0E0E012968D919C9113970097F7
:10182000B9F52D913C911197CD010296820F931F2E
:1018300020917F02309180022817390739F63097BE
:1018400051F51092820210928102B0938002A0930F
:101850007F02BCCFD383C28340815181840F951F07
:10186000C817D90761F44E5F5F4F88819981480F8F
:10187000591F518340838A819B81938382832115E1
:10188000310509F0B0CFF0938202E09381029ECF40
:10189000FD01DC01C0CF13821282D7CFB0E0A0E0FF
:1018A000E4E5FCE00C94EE0A8C01009751F4CB01C6
:1018B0000E94290B8C01C801CDB7DEB7E0E10C9482
:1018C0000A0BFC01E60FF71F9C0122503109E217B9
:1018D000F30708F49DC0D901CD91DC911197C6178B
:1018E000D70798F0C530D10530F3CE01049786179D
:1018F000970708F3C61BD70B2297C193D1936D931B
:101900007C93CF010E94C50BD6CF5B01AC1ABD0AF8
:101910004C018C0E9D1EA0918102B0918202512C2F
:10192000412CF12CE12C109731F580917F029091A0
:1019300080028815990509F05CC04616570608F024
:1019400058C08091040190910501009741F48DB732
:101950009EB74091080150910901841B950BE8172F
:10196000F90708F055C0F0938002E0937F02F90177
:1019700071836083A0CF8D919C91119712966C908A
:10198000129713967C901397A815B90559F56C0119
:1019900042E0C40ED11CCA14DB0420F1AC014A1988
:1019A0005B09DA011296159780F062827382518387
:1019B0004083D9016D937C93E114F10471F0D70158
:1019C0001396FC93EE93129776CF22968C0F9D1F61
:1019D000F90191838083F301EFCFF0938202E093CA
:1019E000810269CF4816590608F42C017D01D30104
:1019F0009ACFCB010E94290B7C01009749F0AE01E0
:101A0000B8010E940B0DC8010E94C50B870153CF7E
:101A100010E000E050CFFB01DC0102C001900D920C
:101A200041505040D8F70895FB01DC0101900D9220
:0A1A30000020E1F70895F894FFCFBD
:101A3A0035033503000083028000000000005D01C9
:101A4A00BD00EA00AA011B01F9000D010000000017
:101A5A00A304BD003603BC005350454544204C49FD
:101A6A004D495400524620434152005741524E4973
:101A7A004E472100647269766572206E756D6265E3
:101A8A00722030303233206861732074616B656E66
:101A9A0020746F6F206D75636820616C636F686F67
:101AAA006C000D0A0053504545443A20004C494DFC
:101ABA0049543A20004C494D495420444554454321
:101ACA00544544005350454544204F56455200441E
:101ADA00454343454C455241544500454E474147CD
:0A1AEA00494E47204155544F0000BB
:00000001FF
